{
  "contractName": "register",
  "abi": [
    {
      "inputs": [
        {
          "internalType": "string",
          "name": "name",
          "type": "string"
        },
        {
          "internalType": "string",
          "name": "adhar",
          "type": "string"
        },
        {
          "internalType": "string",
          "name": "mobile",
          "type": "string"
        },
        {
          "internalType": "string",
          "name": "dob",
          "type": "string"
        },
        {
          "internalType": "string",
          "name": "state",
          "type": "string"
        },
        {
          "internalType": "string",
          "name": "district",
          "type": "string"
        },
        {
          "internalType": "string",
          "name": "pincode",
          "type": "string"
        },
        {
          "internalType": "string",
          "name": "gender",
          "type": "string"
        }
      ],
      "name": "addUser",
      "outputs": [],
      "stateMutability": "nonpayable",
      "type": "function"
    },
    {
      "inputs": [],
      "name": "viewUsers",
      "outputs": [
        {
          "internalType": "string[]",
          "name": "",
          "type": "string[]"
        },
        {
          "internalType": "string[]",
          "name": "",
          "type": "string[]"
        },
        {
          "internalType": "string[]",
          "name": "",
          "type": "string[]"
        },
        {
          "internalType": "string[]",
          "name": "",
          "type": "string[]"
        },
        {
          "internalType": "string[]",
          "name": "",
          "type": "string[]"
        },
        {
          "internalType": "string[]",
          "name": "",
          "type": "string[]"
        },
        {
          "internalType": "string[]",
          "name": "",
          "type": "string[]"
        },
        {
          "internalType": "string[]",
          "name": "",
          "type": "string[]"
        }
      ],
      "stateMutability": "view",
      "type": "function",
      "constant": true
    }
  ],
  "bytecode": "0x608060405234801561001057600080fd5b506111c1806100206000396000f3fe608060405234801561001057600080fd5b50600436106100365760003560e01c806307fb556a1461003b57806314ebdb7914610057575b600080fd5b61005560048036038101906100509190610ac3565b61007c565b005b61005f61029b565b604051610073989796959493929190610d9a565b60405180910390f35b60088760405161008c9190610e8c565b908152602001604051809103902060009054906101000a900460ff16156100b257600080fd5b6000889080600181540180825580915050600190039060005260206000200160009091909190915090816100e691906110b9565b5060018790806001815401808255809150506001900390600052602060002001600090919091909150908161011b91906110b9565b5060028690806001815401808255809150506001900390600052602060002001600090919091909150908161015091906110b9565b5060038590806001815401808255809150506001900390600052602060002001600090919091909150908161018591906110b9565b506004849080600181540180825580915050600190039060005260206000200160009091909190915090816101ba91906110b9565b506005839080600181540180825580915050600190039060005260206000200160009091909190915090816101ef91906110b9565b5060068290806001815401808255809150506001900390600052602060002001600090919091909150908161022491906110b9565b5060078190806001815401808255809150506001900390600052602060002001600090919091909150908161025991906110b9565b50600160088860405161026c9190610e8c565b908152602001604051809103902060006101000a81548160ff0219169083151502179055505050505050505050565b6060806060806060806060806000600160026003600460056006600787805480602002602001604051908101604052809291908181526020016000905b828210156103845783829060005260206000200180546102f790610ed2565b80601f016020809104026020016040519081016040528092919081815260200182805461032390610ed2565b80156103705780601f1061034557610100808354040283529160200191610370565b820191906000526020600020905b81548152906001019060200180831161035357829003601f168201915b5050505050815260200190600101906102d8565b50505050975086805480602002602001604051908101604052809291908181526020016000905b828210156104575783829060005260206000200180546103ca90610ed2565b80601f01602080910402602001604051908101604052809291908181526020018280546103f690610ed2565b80156104435780601f1061041857610100808354040283529160200191610443565b820191906000526020600020905b81548152906001019060200180831161042657829003601f168201915b5050505050815260200190600101906103ab565b50505050965085805480602002602001604051908101604052809291908181526020016000905b8282101561052a57838290600052602060002001805461049d90610ed2565b80601f01602080910402602001604051908101604052809291908181526020018280546104c990610ed2565b80156105165780601f106104eb57610100808354040283529160200191610516565b820191906000526020600020905b8154815290600101906020018083116104f957829003601f168201915b50505050508152602001906001019061047e565b50505050955084805480602002602001604051908101604052809291908181526020016000905b828210156105fd57838290600052602060002001805461057090610ed2565b80601f016020809104026020016040519081016040528092919081815260200182805461059c90610ed2565b80156105e95780601f106105be576101008083540402835291602001916105e9565b820191906000526020600020905b8154815290600101906020018083116105cc57829003601f168201915b505050505081526020019060010190610551565b50505050945083805480602002602001604051908101604052809291908181526020016000905b828210156106d057838290600052602060002001805461064390610ed2565b80601f016020809104026020016040519081016040528092919081815260200182805461066f90610ed2565b80156106bc5780601f10610691576101008083540402835291602001916106bc565b820191906000526020600020905b81548152906001019060200180831161069f57829003601f168201915b505050505081526020019060010190610624565b50505050935082805480602002602001604051908101604052809291908181526020016000905b828210156107a357838290600052602060002001805461071690610ed2565b80601f016020809104026020016040519081016040528092919081815260200182805461074290610ed2565b801561078f5780601f106107645761010080835404028352916020019161078f565b820191906000526020600020905b81548152906001019060200180831161077257829003601f168201915b5050505050815260200190600101906106f7565b50505050925081805480602002602001604051908101604052809291908181526020016000905b828210156108765783829060005260206000200180546107e990610ed2565b80601f016020809104026020016040519081016040528092919081815260200182805461081590610ed2565b80156108625780601f1061083757610100808354040283529160200191610862565b820191906000526020600020905b81548152906001019060200180831161084557829003601f168201915b5050505050815260200190600101906107ca565b50505050915080805480602002602001604051908101604052809291908181526020016000905b828210156109495783829060005260206000200180546108bc90610ed2565b80601f01602080910402602001604051908101604052809291908181526020018280546108e890610ed2565b80156109355780601f1061090a57610100808354040283529160200191610935565b820191906000526020600020905b81548152906001019060200180831161091857829003601f168201915b50505050508152602001906001019061089d565b505050509050975097509750975097509750975097509091929394959697565b6000604051905090565b600080fd5b600080fd5b600080fd5b600080fd5b6000601f19601f8301169050919050565b7f4e487b7100000000000000000000000000000000000000000000000000000000600052604160045260246000fd5b6109d082610987565b810181811067ffffffffffffffff821117156109ef576109ee610998565b5b80604052505050565b6000610a02610969565b9050610a0e82826109c7565b919050565b600067ffffffffffffffff821115610a2e57610a2d610998565b5b610a3782610987565b9050602081019050919050565b82818337600083830152505050565b6000610a66610a6184610a13565b6109f8565b905082815260208101848484011115610a8257610a81610982565b5b610a8d848285610a44565b509392505050565b600082601f830112610aaa57610aa961097d565b5b8135610aba848260208601610a53565b91505092915050565b600080600080600080600080610100898b031215610ae457610ae3610973565b5b600089013567ffffffffffffffff811115610b0257610b01610978565b5b610b0e8b828c01610a95565b985050602089013567ffffffffffffffff811115610b2f57610b2e610978565b5b610b3b8b828c01610a95565b975050604089013567ffffffffffffffff811115610b5c57610b5b610978565b5b610b688b828c01610a95565b965050606089013567ffffffffffffffff811115610b8957610b88610978565b5b610b958b828c01610a95565b955050608089013567ffffffffffffffff811115610bb657610bb5610978565b5b610bc28b828c01610a95565b94505060a089013567ffffffffffffffff811115610be357610be2610978565b5b610bef8b828c01610a95565b93505060c089013567ffffffffffffffff811115610c1057610c0f610978565b5b610c1c8b828c01610a95565b92505060e089013567ffffffffffffffff811115610c3d57610c3c610978565b5b610c498b828c01610a95565b9150509295985092959890939650565b600081519050919050565b600082825260208201905092915050565b6000819050602082019050919050565b600081519050919050565b600082825260208201905092915050565b60005b83811015610cbf578082015181840152602081019050610ca4565b60008484015250505050565b6000610cd682610c85565b610ce08185610c90565b9350610cf0818560208601610ca1565b610cf981610987565b840191505092915050565b6000610d108383610ccb565b905092915050565b6000602082019050919050565b6000610d3082610c59565b610d3a8185610c64565b935083602082028501610d4c85610c75565b8060005b85811015610d885784840389528151610d698582610d04565b9450610d7483610d18565b925060208a01995050600181019050610d50565b50829750879550505050505092915050565b6000610100820190508181036000830152610db5818b610d25565b90508181036020830152610dc9818a610d25565b90508181036040830152610ddd8189610d25565b90508181036060830152610df18188610d25565b90508181036080830152610e058187610d25565b905081810360a0830152610e198186610d25565b905081810360c0830152610e2d8185610d25565b905081810360e0830152610e418184610d25565b90509998505050505050505050565b600081905092915050565b6000610e6682610c85565b610e708185610e50565b9350610e80818560208601610ca1565b80840191505092915050565b6000610e988284610e5b565b915081905092915050565b7f4e487b7100000000000000000000000000000000000000000000000000000000600052602260045260246000fd5b60006002820490506001821680610eea57607f821691505b602082108103610efd57610efc610ea3565b5b50919050565b60008190508160005260206000209050919050565b60006020601f8301049050919050565b600082821b905092915050565b600060088302610f657fffffffffffffffffffffffffffffffffffffffffffffffffffffffffffffffff82610f28565b610f6f8683610f28565b95508019841693508086168417925050509392505050565b6000819050919050565b6000819050919050565b6000610fb6610fb1610fac84610f87565b610f91565b610f87565b9050919050565b6000819050919050565b610fd083610f9b565b610fe4610fdc82610fbd565b848454610f35565b825550505050565b600090565b610ff9610fec565b611004818484610fc7565b505050565b5b818110156110285761101d600082610ff1565b60018101905061100a565b5050565b601f82111561106d5761103e81610f03565b61104784610f18565b81016020851015611056578190505b61106a61106285610f18565b830182611009565b50505b505050565b600082821c905092915050565b600061109060001984600802611072565b1980831691505092915050565b60006110a9838361107f565b9150826002028217905092915050565b6110c282610c85565b67ffffffffffffffff8111156110db576110da610998565b5b6110e58254610ed2565b6110f082828561102c565b600060209050601f8311600181146111235760008415611111578287015190505b61111b858261109d565b865550611183565b601f19841661113186610f03565b60005b8281101561115957848901518255600182019150602085019450602081019050611134565b868310156111765784890151611172601f89168261107f565b8355505b6001600288020188555050505b50505050505056fea2646970667358221220ae78f767a7b133fb185de1ee30d1fd5978e356dd5a98c5756741d68255d5628464736f6c63430008130033",
  "immutableReferences": {},
  "source": "// SPDX-License-Identifier: MIT\npragma solidity >=0.4.22 <0.9.0;\n\ncontract register {\n  string[] _names;\n  string[] _adhars;\n  string[] _mobiles;\n  string[] _dobs;\n  string[] _states;\n  string[] _districts;\n  string[] _pincodes;\n  string[] _gender;\n\n  mapping(string=>bool) _users;\n\n  function addUser(string memory name,string memory adhar,string memory mobile,string memory dob,string memory state,string memory district,string memory pincode,string memory gender) public {\n    require(!_users[adhar]);\n    _names.push(name);\n    _adhars.push(adhar);\n    _mobiles.push(mobile);\n    _dobs.push(dob);\n    _states.push(state);\n    _districts.push(district);\n    _pincodes.push(pincode);\n    _gender.push(gender);\n    _users[adhar]=true;\n  }\n\n  function viewUsers() public view returns(string[] memory,string[] memory,string[] memory,string[] memory,string[] memory,string[] memory,string[] memory,string[] memory) {\n    return(_names,_adhars,_mobiles,_dobs,_states,_districts,_pincodes,_gender);\n  }\n}\n",
  "sourcePath": "/Users/ms/Desktop/voting-dapp-kits/contracts/register.sol",
  "compiler": {
    "name": "solc",
    "version": "0.8.19+commit.7dd6d404.Emscripten.clang"
  },
  "schemaVersion": "3.4.16",
  "updatedAt": "2024-02-27T15:08:11.376Z",
  "networkType": "ethereum",
  "devdoc": {
    "kind": "dev",
    "methods": {},
    "version": 1
  },
  "userdoc": {
    "kind": "user",
    "methods": {},
    "version": 1
  }
}