{
  "contractName": "voting",
  "abi": [
    {
      "inputs": [
        {
          "internalType": "uint256",
          "name": "id",
          "type": "uint256"
        },
        {
          "internalType": "string",
          "name": "adhar",
          "type": "string"
        }
      ],
      "name": "castVote",
      "outputs": [],
      "stateMutability": "nonpayable",
      "type": "function"
    },
    {
      "inputs": [],
      "name": "displayVotes",
      "outputs": [
        {
          "internalType": "uint256[3]",
          "name": "",
          "type": "uint256[3]"
        }
      ],
      "stateMutability": "view",
      "type": "function",
      "constant": true
    }
  ],
  "bytecode": "0x60806040526040518060600160405280600060ff168152602001600060ff168152602001600060ff16815250600090600361003b92919061004e565b5034801561004857600080fd5b506100b0565b8260038101928215610082579160200282015b82811115610081578251829060ff16905591602001919060010190610061565b5b50905061008f9190610093565b5090565b5b808211156100ac576000816000905550600101610094565b5090565b610611806100bf6000396000f3fe608060405234801561001057600080fd5b50600436106100365760003560e01c80636c8326f21461003b578063d037853a14610059575b600080fd5b610043610075565b60405161005091906102b0565b60405180910390f35b610073600480360381019061006e9190610451565b6100c0565b005b61007d6101d9565b60006003806020026040519081016040528092919082600380156100b6576020028201915b8154815260200190600101908083116100a2575b5050505050905090565b6003816040516100d0919061051e565b908152602001604051809103902060009054906101000a900460ff16156100f657600080fd5b6000820361012e576000806003811061011257610111610535565b5b01600081548092919061012490610593565b919050555061019e565b6001820361016757600060016003811061014b5761014a610535565b5b01600081548092919061015d90610593565b919050555061019d565b6002820361019c57600060026003811061018457610183610535565b5b01600081548092919061019690610593565b91905055505b5b5b60016003826040516101b0919061051e565b908152602001604051809103902060006101000a81548160ff0219169083151502179055505050565b6040518060600160405280600390602082028036833780820191505090505090565b600060039050919050565b600081905092915050565b6000819050919050565b6000819050919050565b61022e8161021b565b82525050565b60006102408383610225565b60208301905092915050565b6000602082019050919050565b610262816101fb565b61026c8184610206565b925061027782610211565b8060005b838110156102a857815161028f8782610234565b965061029a8361024c565b92505060018101905061027b565b505050505050565b60006060820190506102c56000830184610259565b92915050565b6000604051905090565b600080fd5b600080fd5b6102e88161021b565b81146102f357600080fd5b50565b600081359050610305816102df565b92915050565b600080fd5b600080fd5b6000601f19601f8301169050919050565b7f4e487b7100000000000000000000000000000000000000000000000000000000600052604160045260246000fd5b61035e82610315565b810181811067ffffffffffffffff8211171561037d5761037c610326565b5b80604052505050565b60006103906102cb565b905061039c8282610355565b919050565b600067ffffffffffffffff8211156103bc576103bb610326565b5b6103c582610315565b9050602081019050919050565b82818337600083830152505050565b60006103f46103ef846103a1565b610386565b9050828152602081018484840111156104105761040f610310565b5b61041b8482856103d2565b509392505050565b600082601f8301126104385761043761030b565b5b81356104488482602086016103e1565b91505092915050565b60008060408385031215610468576104676102d5565b5b6000610476858286016102f6565b925050602083013567ffffffffffffffff811115610497576104966102da565b5b6104a385828601610423565b9150509250929050565b600081519050919050565b600081905092915050565b60005b838110156104e15780820151818401526020810190506104c6565b60008484015250505050565b60006104f8826104ad565b61050281856104b8565b93506105128185602086016104c3565b80840191505092915050565b600061052a82846104ed565b915081905092915050565b7f4e487b7100000000000000000000000000000000000000000000000000000000600052603260045260246000fd5b7f4e487b7100000000000000000000000000000000000000000000000000000000600052601160045260246000fd5b600061059e8261021b565b91507fffffffffffffffffffffffffffffffffffffffffffffffffffffffffffffffff82036105d0576105cf610564565b5b60018201905091905056fea26469706673582212201df2659dc6fec54a8132bbb10083d0aa26dab604d69dd4238cd587cef8f9cfd564736f6c63430008130033",
  "immutableReferences": {},
  "source": "// SPDX-License-Identifier: MIT\npragma solidity >=0.4.22 <0.9.0;\n\ncontract voting {\n  \n  uint[3] _votes=[0,0,0];\n\n  mapping(string=>bool) _voters;\n\n\n  function castVote(uint id,string memory adhar) public {\n    require(!_voters[adhar]);\n    if(id==0)\n      _votes[0]++;\n    else if(id==1)\n      _votes[1]++;\n    else if(id==2)\n      _votes[2]++;\n    _voters[adhar]=true;\n  }\n\n  function displayVotes() public view returns(uint[3] memory){\n    return _votes;\n  }\n}\n",
  "sourcePath": "/Users/ms/Desktop/voting-dapp-kits/contracts/voting.sol",
  "compiler": {
    "name": "solc",
    "version": "0.8.19+commit.7dd6d404.Emscripten.clang"
  },
  "schemaVersion": "3.4.16",
  "updatedAt": "2024-02-27T15:08:11.498Z",
  "networkType": "ethereum",
  "devdoc": {
    "kind": "dev",
    "methods": {},
    "version": 1
  },
  "userdoc": {
    "kind": "user",
    "methods": {},
    "version": 1
  }
}